:020000040800F2
:100000000000022051DA00084DD9000851D900083B
:1000100055D9000859D900085DD900080000000032
:1000200000000000000000000000000009BF000800
:1000300061D9000800000000ADBF000865D90008C4
:10004000A1DA0008A1DA0008A1DA0008A1DA0008A4
:10005000A1DA0008A1DA0008A1DA0008A1DA000894
:10006000A1DA0008A1DA0008A1DA0008A1DA000884
:10007000A1DA0008A1DA0008A1DA0008A1DA000874
:10008000A1DA0008A1DA0008A1DA0008A1DA000864
:10009000A1DA0008A1DA0008A1DA0008A1DA000854
:1000A000A1DA0008A1DA0008A1DA0008A1DA000844
:1000B000A1DA0008A1DA0008A1DA0008A1DA000834
:1000C000A1DA0008A1DA0008A1DA0008A1DA000824
:1000D000A1DA0008A1DA0008A1DA0008A1DA000814
:1000E000A1DA0008A1DA0008A1DA0008A1DA000804
:1000F000A1DA0008A1DA0008A1DA0008A1DA0008F4
:10010000A1DA0008A1DA0008A1DA0008A1DA0008E3
:10011000A1DA0008A1DA0008A1DA0008A1DA0008D3
:10012000A1DA0008A1DA0008A1DA0008A1DA0008C3
:10013000A1DA0008A1DA0008A1DA0008A1DA0008B3
:10014000A1DA0008A1DA0008A1DA0008A1DA0008A3
:10015000A1DA0008A1DA0008A1DA0008A1DA000893
:10016000A1DA0008A1DA0008A1DA0008A1DA000883
:10017000A1DA0008A1DA0008A1DA000800000000F6
:04018000A1DA0008F8
:10018400A0DB0008000000209C0000209C00002050
:10019400843E0020002307E0054AD25C824201D15C
:1001A400184670470133DBB2012BF5D9FF207047A5
:1001B4009C00002008B50B462AB1C0B21021DAB267
:1001C40000F09CFD08BDC0B21121DAB200F096FD2A
:1001D40008BD00BF10B5C4B220460321022200F0BE
:1001E4008DFD0A2000F09CFD20460321002200F032
:1001F40085FD022000F094FD10BD00BF10B504463B
:10020400FFF7C8FFFF280BD10020FFF7C3FF012829
:1002140006D8044B1C5400F069FD2046FFF7DAFFB2
:1002240010BD00BF9C00002038B5044600F05EFD00
:10023400E4B22046002100F065FD050220460121BC
:1002440000F060FD284380B238BD00BF10B50C46F5
:10025400C0B2122100F056FDE4B2204010BD00BF30
:1002640010B50C46C0B20D2100F04CFDE4B22040A4
:1002740010BD00BF10B5C4B22046402100F042FDBD
:1002840010F0800F05D020464C2100F03BFD60B9F2
:1002940010BD20464B21012200F030FD20464B21A9
:1002A400002200F02BFD002010BD012010BD00BF76
:1002B40070B582B00E461546C4B22046D72101AAB5
:1002C400042300F023FD9DF804209DF805301B0451
:1002D40043EA02639DF8062043EA02239DF80720BF
:1002E40013431A0D3280C3F30B232B8020464B217A
:1002F400012200F003FD20464B21002200F0FEFC09
:1003040002B070BD10B5C4B22046092100F0FAFC59
:1003140040F0010220460921D2B200F0EFFC10BDEA
:1003240010B5C4B22046092100F0ECFC00F0FE0236
:100334002046092100F0E2FC10BD00BF38B50C4690
:10034400C5B228460A2100F0DDFC40EA0402284632
:100354000A21D2B200F0D2FC38BD00BF10B5044669
:1003640000F0C8FC20468021FFF7E8FF2046FFF795
:10037400C9FF10BD10B5044600F0BCFC20461F2187
:10038400FFF7DCFF2046FFF7BDFF10BD38B50C4674
:10039400C5B228460A2100F0B5FC20EA040228462A
:1003A4000A21D2B200F0AAFC38BD00BF10B5044641
:1003B400FFF7B6FF20468021FFF7E8FF10BD00BF1E
:1003C40010B50446FFF7ACFF20461F21FFF7DEFF00
:1003D40010BD00BF38B50D46C4B22046092100F057
:1003E40091FC00F0FB02204609212A4300F086FC20
:1003F40038BD00BF38B50D46C4B22046092100F00F
:1004040081FC00F0FD02204609212A4300F076FC1D
:1004140038BD00BF10B50C46C0B20B2100F072FC11
:100424002040A04214BF0020012010BD10B50C468E
:10043400C0B20B2100F066FC204010BD08B51F219E
:10044400FFF7F4FF08BD00BF08B50A46C0B20B2190
:1004540000F054FC08BD00BF38B505460C468021A9
:10046400FFF7F2FFEDB2E4B228460D21224600F078
:1004740045FC28461421224600F040FC284615215C
:10048400224600F03BFC28461621224600F036FCAA
:1004940038BD00BF08B51F21FFF7D6FF08BD00BF58
:1004A40070B50D461646C4B22046132100F02AFC4E
:1004B40026B140EA050202F0FF0202E020EA05024A
:1004C400D2B22046132100F019FC70BD38B50C4699
:1004D400C5B22846172100F015FC40EA040228465C
:1004E4001721D2B200F00AFC38BD00BF70B5044633
:1004F4000E46C5B22846042100F004FC00F0FA02BE
:100504002846042100F0FAFB2046F1B2FFF7DEFF93
:1005140070BD00BF38B50C46C5B22846172100F09F
:10052400F1FB20EA040228461721D2B200F0E6FBD0
:1005340038BD00BF38B50546C4B22046042100F0DA
:10054400E1FB00F0FC022046042100F0D7FB20462A
:100554002021492200F0D2FB022000F0E1FB2046DA
:100564002121012200F0CAFB28461E21FFF7D2FFF9
:10057400204641219A2200F0C1FB20464A21012253
:1005840000F0BCFB20464B21012200F0B7FB2046C3
:100594004B21002200F0B2FB20465621012200F03C
:1005A400ADFB20465821012200F0A8FB2046402143
:1005B400012200F0A3FB20460B21FF2200F09EFB4A
:1005C400022000F0ADFB38BD2DE9F0410F46904606
:1005D400C5B22846162100F095FB0646284615218B
:1005E40000F090FBFC43E4B204EA0602044018F075
:1005F400010F01D0FBB21A4318F0020F01D0FFB271
:100604003C432846162100F079FB28461521224652
:1006140000F074FBBDE8F08138B50C46C5B228463D
:100624000C2100F06FFB40EA040228460C21D2B2F0
:1006340000F064FB38BD00BF38B504460D46052AFA
:100644005DD8DFE802F003070B2035490022FFF7ED
:1006540027FF38BD0122FFF723FF38BDFFF77EFED9
:1006640020462946FFF7D8FF204629460022FFF7F7
:1006740017FF20460221FFF7BDFE2046294602222D
:10068400FFF7A2FF38BDFFF769FE20462946FFF7B2
:10069400C3FF204629460022FFF702FF204602211D
:1006A400FFF7A8FE204629460122FFF78DFF38BD3B
:1006B400FFF754FE20462946FFF7AEFF20462946A1
:1006C4000022FFF7EDFE20460021FFF793FE2046AF
:1006D4000021FFF77FFE38BDFFF740FE2046294684
:1006E400FFF79AFF204629460022FFF7D9FE20464D
:1006F4000021FFF77FFE20460421FFF76BFE38BD83
:1007040038B50C46C5B228460C2100F0FBFA20EAA5
:10071400040228460C21D2B200F0F0FA38BD00BF22
:100724004FF0D043588070474FF0D0431880704743
:100734004FF0D043588880B2704700BF10B586B0E0
:100744001E4B9A6B42F001029A631A6B42F0080244
:100754001A631A6B42F010021A631A6B42F02002F9
:100764001A631A6B42F040021A63022302930123B4
:100774000393032304930C23059306AC4FF63373BE
:1007840044F8143D0E48214606F0F4FB4FF69B73E3
:1007940001930C48214606F0EDFB4FF23F03019311
:1007A4000948214606F0E6FB40F23F43019307481F
:1007B400214606F0DFFB06B010BD00BF0038024042
:1007C400000C0240001002400014024000180240D5
:1007D40070B586B01C4C236B43F0020323634023A3
:1007E4000193122302930025039502230493042307
:1007F4000593164E30460DEB030106F0BBFB4FF498
:1008040000730193304601A906F0B4FB236C43F452
:1008140000132364236A43F400132362236A23F43A
:10082400001323621F2005212A4600F0EBFB1F2042
:1008340000F01AFC202005212A4600F0E3FB2020CA
:1008440000F012FC06B070BD003802400004024003
:10085400134B1B781BBB10B586B00122104B1A70CA
:10086400104B1A6B42F480721A635A6C42F4804241
:100874005A640423019300240394022304930A4B2F
:1008840002930A4801A906F075FB082005212246B7
:1008940000F0B8FB082000F0E7FB06B010BD70477D
:1008A4009E00002000380240000021100020024079
:1008B40010B50C4808F09AFD98B90A4C0A4B23600D
:1008C4000A4B63600023A360E3604FF4804222611B
:1008D4006361A361E3612362FFF77AFF204606F0B8
:1008E40093FF10BDF03D002000540040A08601009D
:1008F40008B5034807F012F8FFF7DAFF08BD00BF98
:10090400F03D002010B586B0044606AB03F8012D77
:100914000A4600930123019364210291044821466D
:1009240007F076FD10B12046FFF7E2FF06B010BDD8
:10093400F03D002070B584B004460E461546009381
:10094400BDF82030019364230293074821463246C0
:100954002B4607F05DFD054610B12046FFF7C8FFA2
:10096400284604B070BD00BFF03D002010B586B02D
:10097400044606AB002203F8012D0A460093012326
:100984000193642102910648214607F0C9FD10B184
:100994002046FFF7ADFF9DF8170006B010BD00BF5D
:1009A400F03D002070B584B004460E461546009311
:1009B400BDF8203001936423029307482146324650
:1009C4002B4607F0ADFD054610B12046FFF790FF1A
:1009D400284604B070BD00BFF03D002000B599B0BA
:1009E4004FF02043079303F5827308930323009386
:1009F400002301930922029203930493059306931F
:100A0400042209920A930B9310220C920D930E93D5
:100A14000F9310934FF480521192129313931493E3
:100A24001593FFF78BFE07A869466A4609F07EFB1B
:100A340019B05DF804FB00BF08B503460A46034835
:100A44001946642308F034F808BD00BFF03D0020C7
:100A54004FF0C060704700BF00B587B0034628B9A7
:100A640016490A6B42F040020A6314E0012805D1DA
:100A740012490A6B42F040020A630CE0022805D1D5
:100A84000E490A6B42F480720A6304E00B490A6B54
:100A940042F004020A630A4A32F813200192012246
:100AA4000292039202220492064A52F8230001A9F8
:100AB40006F060FA07B05DF804FB00BF003802409E
:100AC40058DB00086400002008B50346044A52F8C5
:100AD4002000044A32F81310012206F0A1FB08BDDD
:100AE4006400002058DB000808B50346044A52F8A5
:100AF4002000044A32F81310002206F091FB08BDCE
:100B04006400002058DB000808B50346044A52F884
:100B14002000044A32F8131006F088FB08BD00BF19
:100B24006400002058DB000830B587B00D46044649
:100B340028B9254A136B43F0010313630CE0012821
:100B440005D1214A136B43F00403136304E01E4AE6
:100B5400136B43F0400313631B4A536C43F4804309
:100B6400536475B9194B33F814300193002302937D
:100B7400039302230493164B53F8240001A906F0AF
:100B8400F9F9012D1ED1114B33F8143001930023D0
:100B940003930223049314B10E4B029301E00E4B12
:100BA40002930B4B53F8240001A906F0E3F90B4B15
:100BB40013F9144020460F21002200F023FA2046A6
:100BC40000F052FA07B030BD0038024050DB000894
:100BD40054000020000021100000111048DB000820
:100BE40008B50346044A52F82000044A32F81310A8
:100BF40006F00EFB08BD00BF5400002050DB0008C7
:100C0400F0B587B00E46044620B91A4A136B43F078
:100C14000403136324B9174A136B43F004031363E7
:100C240024B9144A136C43F4802313644FF480638F
:100C34000193022502950495012303930727059741
:100C44000D4B53F8240001A906F094F94FF4006306
:100C5400019302950597094B53F8240001A906F066
:100C640089F9074B53F824303360304609F05CFDB2
:100C740007B0F0BD0038024060000020740000207E
:100C84007800002038B5054600F09AF80446012D96
:100C940003D1F820032100F0C3F8204638BD00BF7B
:100CA40008B5F82000F0D6F8C3B213F0F80F10D04E
:100CB40010F0800F0FD013F0400F0ED013F0200F60
:100CC4000DD013F0100F0CD013F0080F0BD105202A
:100CD40008BD002008BD012008BD022008BD032076
:100CE40008BD042008BD002008BD00BF08B5FFF7FB
:100CF400DFFD08BD08B5FFF7ABFD08BD08B5FFF77C
:100D040001FE08BD08B5FFF731FE08BD10B582B07D
:100D14001446009301222346FFF744FE02B010BD9F
:100D240008B500F001F908BD08B5FFF757FE08BD86
:100D340008B5FFF7F5FC08BD08B5FFF7F5FC08BDDD
:100D440008B5FFF7F5FC08BD08B5FFF7B1FD08BD10
:100D540008B5FFF7D7FD08BD08B5FFF707FE08BDC6
:100D640008B5FFF7A5FD08BD08B5FFF7CBFD08BD25
:100D740008B5FFF7FBFD08BD08B500F0D5F808BDC0
:100D840008B5FFF795FD08BD10B582B014469BB2B7
:100D94000093C0B210222346FFF7CCFD02B010BD71
:100DA40010B582B014469BB20093C0B21022234601
:100DB400FFF7F8FD02B010BD08B5FFF73DFE08BD12
:100DC40010B50B4B5B688820984740F61103984296
:100DD4000CD1084C064B23601B6888209847236875
:100DE400DB688820FF219847002010BD012010BD3A
:100DF40000000020A000002008B50146024B1B683B
:100E04005B6A8820984708BDA000002008B5014609
:100E1400024B1B689B6A8820984708BDA0000020ED
:100E240010B504460A46044B1B681B6988202146FA
:100E34009847002010BD00BFA000002010B5044654
:100E44000A46034B1B685B6988202146984710BDFE
:100E5400A000002008B50146024B1B689B6988204E
:100E6400984708BDA000002010B504460B4B1B6832
:100E74009B69882021469847012807D1074B1B68A6
:100E84005B69882021460022984710BD034B1B68EC
:100E94005B69882021460122984710BDA0000020EC
:100EA400704700BF08B50C4B1A6842F400721A6010
:100EB4001A6842F480621A601A6842F480721A60F6
:100EC4004FF47A5000F0F8F8032000F089F8FFF7A7
:100ED400E7FF002008BD00BF003C0240704700BF90
:100EE40010B5094B4FF0FF321A6200241C625A629B
:100EF4005C621A611C615A615C619A619C61FFF7D2
:100F0400EDFF204610BD00BF00380240024A1368BE
:100F140001331360704700BFA4000020014B186820
:100F2400704700BFA400002010B582B00190FFF705
:100F3400F5FF019C0444FFF7F1FFA042FBD302B08C
:100F440010BD00BF4FF00120704700BF014B18686F
:100F5400000C7047002004E0024B1868C0F30B003B
:100F6400704700BF002004E0024A536843F00103C5
:100F740053607047002004E0024A536823F00103E1
:100F840053607047002004E0024A536843F00203B0
:100F940053607047002004E0024A536823F00203C0
:100FA40053607047002004E0024A536843F004038E
:100FB40053607047002004E0024A536823F004039E
:100FC40053607047002004E00122014B1A6070470F
:100FD400000427420022014B1A6070470004274294
:100FE40000F00700064AD36823F4E0631B041B0CDB
:100FF40043EA002040F0BF6040F40030D060704706
:1010040000ED00E030B4164BDC68C4F30224C4F1F4
:101014000705042D28BF0425231D062B01D9033CF5
:1010240000E00024012303FA05F5013D2940A14015
:10103400A340013B1A400A43002806DA00F00F00DF
:101044001201D2B2074B1A5407E01201D2B200F1D6
:10105400604000F5614080F8002330BC704700BF59
:1010640000ED00E014ED00E0410900F01F00012351
:101074008340024A42F82130704700BF00E100E09B
:10108400430900F01F00012282402033014941F846
:101094002320704700E100E0BFF34F8F0449CA6882
:1010A40002F4E062034B1343CB60BFF34F8FFEE7C0
:1010B40000ED00E00400FA050138B0F1807F0AD2A7
:1010C400064B5860F021064A82F8231000209860ED
:1010D40007221A6070470120704700BF10E000E04B
:1010E40000ED00E0024BD868C0F30220704700BF57
:1010F40000ED00E0F0B4002805DA00F00F00134C16
:10110400205C050906E000F1604000F5614090F8BC
:101114000003050901F00701C1F10706042E28BFE9
:101124000426081D062801D9033900E0002125FA08
:1011340001F7012000FA06F4013C3C4014608840A9
:10114400013828401860F0BC704700BF14ED00E07F
:10115400430900F01F00012282404033014941F855
:101164002320704700E100E043094033054A52F868
:10117400233000F01F0201209040184000D00120CD
:10118400704700BF00E100E0430900F01F000122A6
:1011940082406033014941F82320704700E100E0B8
:1011A40043098033054A52F8233000F01F0201201E
:1011B4009040184000D00120704700BF00E100E0DB
:1011C400042805D1054A136843F0040313607047EB
:1011D400024A136823F004031360704710E000E030
:1011E400704700BF08B5FFF7FBFF08BD10B40468E3
:1011F40063608368402B04D103689A600368D960F4
:1012040003E0036899600368DA605DF8044B704793
:10121400002831D010B40346022280F83520046837
:101224002168184A0A40406899680843D968084305
:10123400196908435969084399690843D9690843F6
:10124400196A01430A43596A042903D1D86A196BFC
:1012540001430A43226019684A6922F00702586A66
:101264000243042801D1986A02434A610020D864E9
:10127400012283F8352001E0012070475DF8044B1A
:10128400704700BF3F8014F090F83530DBB2022B7A
:1012940000F040870268136823F0010313600268BA
:1012A4000023136002685360026893600268D3608D
:1012B40002681361036821225A610368B04A9342A9
:1012C40056D9583AD268AF498B424CD001F5806167
:1012D4008B4246D0A1F568718B4240D001F5806104
:1012E4008B423AD0A1F589618B4233D001F58061FC
:1012F4008B422CD0A1F568718B4225D001F5806119
:101304008B421ED0A1F589618B4217D001F5806113
:101314008B4210D0A1F568718B4209D001F5806130
:101324008B4202D14FF480231EE04FF080731BE008
:101334004FF4802318E04FF4802315E04FF480230A
:1013440012E04FF480730FE04FF480730CE04FF41D
:10135400807309E04FF4807306E08B4B04E08A4B02
:1013640002E0894B00E0884B1343884AD36019E1BB
:10137400874A934257D902F55272926881498B4247
:101384004CD001F580618B4246D0A1F568718B4247
:1013940040D001F580618B423AD0A1F589618B423E
:1013A40033D001F580618B422CD0A1F568718B425A
:1013B40025D001F580618B421ED0A1F589618B4255
:1013C40017D001F580618B4210D0A1F568718B4272
:1013D40009D001F580618B4202D14FF480231EE0D5
:1013E4004FF080731BE04FF4802318E04FF4802308
:1013F40015E04FF4802312E04FF480730FE04FF4B4
:1014040080730CE04FF4807309E04FF4807306E0BE
:101414005D4B04E05C4B02E05B4B00E05A4B134332
:101424005A4A9360BEE05B4A934256D9583AD2680E
:1014340054498B424CD001F580618B4246D0A1F5D2
:1014440068718B4240D001F580618B423AD0A1F59E
:1014540089618B4233D001F580618B422CD0A1F598
:1014640068718B4225D001F580618B421ED0A1F5B5
:1014740089618B4217D001F580618B4210D0A1F5B0
:1014840068718B4209D001F580618B4202D14FF41F
:1014940080231EE04FF080731BE04FF4802318E09C
:1014A4004FF4802315E04FF4802312E04FF480734F
:1014B4000FE04FF480730CE04FF4807309E04FF4B5
:1014C400807306E0304B04E02F4B02E02E4B00E02B
:1014D4002D4B1343304AD36064E02F4A9268294964
:1014E4008B425BD001F580618B4246D0A1F56871D7
:1014F4008B4240D001F580618B423AD0A1F58961DD
:101504008B4233D001F580618B422CD0A1F56871F8
:101514008B4225D001F580618B421ED0A1F58961F3
:101524008B4217D001F580618B4210D0A1F5687110
:101534008B4209D001F580618B4202D14FF48023A4
:101544002DE04FF080732AE04FF4802327E04FF41E
:10155400802324E04FF4802321E04FF480731EE0C5
:101564004FF480731BE04FF4807318E04FF48073E2
:1015740015E0054B13E0044B11E0034B0FE000BFF3
:10158400586402401060024004008000006402407D
:10159400B86002405860024000600240B24B1343FE
:1015A400B24A93600368B24A934256D9583AD26811
:1015B400B0498B424CD001F580618B4246D0A1F5F5
:1015C40068718B4240D001F580618B423AD0A1F51D
:1015D40089618B4233D001F580618B422CD0A1F517
:1015E40068718B4225D001F580618B421ED0A1F534
:1015F40089618B4217D001F580618B4210D0A1F52F
:1016040068718B4209D001F580618B4202D14FF49D
:1016140000131EE04FF000631BE04FF4001318E0CA
:101624004FF4001315E04FF4001312E04FF400637D
:101634000FE04FF400630CE04FF4006309E04FF453
:10164400006306E0202304E0202302E0202300E0DE
:1016540020231343884AD36018E1884A934257D918
:1016640002F55272926883498B424CD001F5806135
:101674008B4246D0A1F568718B4240D001F5806160
:101684008B423AD0A1F589618B4233D001F5806158
:101694008B422CD0A1F568718B4225D001F5806175
:1016A4008B421ED0A1F589618B4217D001F5806170
:1016B4008B4210D0A1F568718B4209D001F580618D
:1016C4008B4202D14FF400131EE04FF000631BE085
:1016D4004FF4001318E04FF4001315E04FF4001317
:1016E40012E04FF400630FE04FF400630CE04FF49A
:1016F400006309E04FF4006306E0202304E02023A4
:1017040002E0202300E0202313435B4A9360BDE002
:101714005B4A934256D9583AD26856498B424CD0C8
:1017240001F580618B4246D0A1F568718B4240D0AF
:1017340001F580618B423AD0A1F589618B4233D0A7
:1017440001F580618B422CD0A1F568718B4225D0C4
:1017540001F580618B421ED0A1F589618B4217D0BF
:1017640001F580618B4210D0A1F568718B4209D0DC
:1017740001F580618B4202D14FF400131EE04FF05B
:1017840000631BE04FF4001318E04FF4001315E05E
:101794004FF4001312E04FF400630FE04FF40063C2
:1017A4000CE04FF4006309E04FF4006306E02023EB
:1017B40004E0202302E0202300E0202313432B4AEB
:1017C400D36063E0294A92682A498B425AD001F5D2
:1017D40080618B4246D0A1F568718B4240D001F5FF
:1017E40080618B423AD0A1F589618B4233D001F5F7
:1017F40080618B422CD0A1F568718B4225D001F514
:1018040080618B421ED0A1F589618B4217D001F50E
:1018140080618B4210D0A1F568718B4209D001F52B
:1018240080618B4202D14FF400132CE04FF000632F
:1018340029E04FF4001326E04FF4001323E04FF4A3
:10184400001320E04FF400631DE04FF400631AE03E
:101854004FF4006317E04FF4006314E0202312E018
:10186400202310E020230EE00400800000600240EA
:10187400586402401060024000640240B8600240B4
:101884005860024020231343B14A93600368B14A6D
:10189400934256D9583AD268AF498B424CD001F59D
:1018A40080618B4246D0A1F568718B4240D001F52E
:1018B40080618B423AD0A1F589618B4233D001F526
:1018C40080618B422CD0A1F568718B4225D001F543
:1018D40080618B421ED0A1F589618B4217D001F53E
:1018E40080618B4210D0A1F568718B4209D001F55B
:1018F40080618B4202D14FF400231EE04FF000734D
:101904001BE04FF4002318E04FF4002315E04FF4DC
:10191400002312E04FF400730FE04FF400730CE067
:101924004FF4007309E04FF4007306E0082304E069
:10193400082302E0082300E008231343874AD36006
:1019440016E1874A934257D902F552729268824946
:101954008B424CD001F580618B4246D0A1F5687171
:101964008B4240D001F580618B423AD0A1F5896168
:101974008B4233D001F580618B422CD0A1F5687184
:101984008B4225D001F580618B421ED0A1F589617F
:101994008B4217D001F580618B4210D0A1F568719C
:1019A4008B4209D001F580618B4202D14FF40023B0
:1019B4001EE04FF000731BE04FF4002318E04FF4D7
:1019C400002315E04FF4002312E04FF400730FE0FE
:1019D4004FF400730CE04FF4007309E04FF400730C
:1019E40006E0082304E0082302E0082300E00823BB
:1019F40013435A4A9360BBE05A4A934256D9583A21
:101A0400D26855498B424CD001F580618B4246D057
:101A1400A1F568718B4240D001F580618B423AD0C8
:101A2400A1F589618B4233D001F580618B422CD0C2
:101A3400A1F568718B4225D001F580618B421ED0DF
:101A4400A1F589618B4217D001F580618B4210D0DA
:101A5400A1F568718B4209D001F580618B4202D1F6
:101A64004FF400231EE04FF000731BE04FF40023FB
:101A740018E04FF4002315E04FF4002312E04FF474
:101A840000730FE04FF400730CE04FF4007309E0AF
:101A94004FF4007306E0082304E0082302E008235F
:101AA40000E0082313432A4AD36061E0284A92687D
:101AB40029498B4258D001F580618B4246D0A1F56B
:101AC40068718B4240D001F580618B423AD0A1F518
:101AD40089618B4233D001F580618B422CD0A1F512
:101AE40068718B4225D001F580618B421ED0A1F52F
:101AF40089618B4217D001F580618B4210D0A1F52A
:101B040068718B4209D001F580618B4202D14FF498
:101B140000232AE04FF0007327E04FF4002324E071
:101B24004FF4002321E04FF400231EE04FF4007330
:101B34001BE04FF4007318E04FF4007315E04FF40A
:101B4400007312E0082310E008230EE008230CE0E1
:101B54000060024058640240106002400064024089
:101B6400B86002405860024008231343A94A9360B6
:101B74000368A94A934252D9583AD268A7498B427A
:101B840048D001F580618B4242D0A1F568718B4247
:101B94003CD001F580618B4236D0A1F589618B423E
:101BA40030D001F580618B422AD0A1F568718B4257
:101BB40024D001F580618B421ED0A1F589618B424E
:101BC40017D001F580618B4210D0A1F568718B426A
:101BD40009D001F580618B4202D14FF480331AE0C1
:101BE4004FF4800317E04FF4803314E04FF4803354
:101BF40011E04FF480330EE040230CE040230AE070
:101C0400402308E0402306E0854B04E0844B02E0D7
:101C1400834B00E0824B1343824AD3600CE1824A37
:101C2400934253D902F5527292687C498B4248D050
:101C340001F580618B4242D0A1F568718B423CD0A2
:101C440001F580618B4236D0A1F589618B4230D099
:101C540001F580618B422AD0A1F568718B4224D0B2
:101C640001F580618B421ED0A1F589618B4217D0AA
:101C740001F580618B4210D0A1F568718B4209D0C7
:101C840001F580618B4202D14FF480331AE04FF4A6
:101C9400800317E04FF4803314E04FF4803311E0F5
:101CA4004FF480330EE040230CE040230AE040234D
:101CB40008E0402306E05A4B04E0594B02E0584B3D
:101CC40000E0574B1343574A9360B5E0574A934299
:101CD40052D9583AD26851498B4248D001F58061B3
:101CE4008B4242D0A1F568718B423CD001F58061F2
:101CF4008B4236D0A1F589618B4230D001F58061E9
:101D04008B422AD0A1F568718B4224D001F5806101
:101D14008B421ED0A1F589618B4217D001F58061F9
:101D24008B4210D0A1F568718B4209D001F5806116
:101D34008B4202D14FF480331AE04FF4800317E052
:101D44004FF4803314E04FF4803311E04FF48033C8
:101D54000EE040230CE040230AE0402308E0402347
:101D640006E02F4B04E02E4B02E02D4B00E02C4B01
:101D74001343284AD3605FE0264A926827498B427E
:101D840056D001F580618B4242D0A1F568718B4237
:101D94003CD001F580618B4236D0A1F589618B423C
:101DA40030D001F580618B422AD0A1F568718B4255
:101DB40024D001F580618B421ED0A1F589618B424C
:101DC40017D001F580618B4210D0A1F568718B4268
:101DD40009D001F580618B4202D14FF4803328E0B1
:101DE4004FF4800325E04FF4803322E04FF4803336
:101DF4001FE04FF480331CE040231AE0402318E036
:101E0400402316E0402314E0054B12E0044B10E09D
:101E1400034B0EE000600240586402401060024030
:101E24000100800000640240B86002405860024033
:101E3400B94B1343B94A93600368B94A934256D9DC
:101E4400583AD268B7498B424CD001F580618B4235
:101E540046D0A1F568718B4240D001F580618B4278
:101E64003AD0A1F589618B4233D001F580618B4270
:101E74002CD0A1F568718B4225D001F580618B428D
:101E84001ED0A1F589618B4217D001F580618B4288
:101E940010D0A1F568718B4209D001F580618B42A5
:101EA40002D14FF480131EE04FF080631BE04FF427
:101EB400801318E04FF4801315E04FF4801312E000
:101EC4004FF480630FE04FF480630CE04FF48063C1
:101ED40009E04FF4806306E0102304E0102302E0DD
:101EE400102300E0102313438F4AD3600AE18F4A82
:101EF400934257D902F5527292688A498B424CD068
:101F040001F580618B4246D0A1F568718B4240D0C7
:101F140001F580618B423AD0A1F589618B4233D0BF
:101F240001F580618B422CD0A1F568718B4225D0DC
:101F340001F580618B421ED0A1F589618B4217D0D7
:101F440001F580618B4210D0A1F568718B4209D0F4
:101F540001F580618B4202D14FF480131EE04FF0F3
:101F640080631BE04FF4801318E04FF4801315E0F6
:101F74004FF4801312E04FF480630FE04FF480635A
:101F84000CE04FF4806309E04FF4806306E0102313
:101F940004E0102302E0102300E010231343624AFC
:101FA4009360AFE0624A934256D9583AD2685D4989
:101FB4008B424CD001F580618B4246D0A1F568710B
:101FC4008B4240D001F580618B423AD0A1F5896102
:101FD4008B4233D001F580618B422CD0A1F568711E
:101FE4008B4225D001F580618B421ED0A1F5896119
:101FF4008B4217D001F580618B4210D0A1F5687136
:102004008B4209D001F580618B4202D14FF48013D9
:102014001EE04FF080631BE04FF4801318E04FF490
:10202400801315E04FF4801312E04FF480630FE047
:102034004FF480630CE04FF4806309E04FF4806355
:1020440006E0102304E0102302E0102300E0102334
:102054001343324AD36055E0304A926831498B4287
:102064004CD001F580618B4246D0A1F568718B425A
:1020740040D001F580618B423AD0A1F589618B4251
:1020840033D001F580618B422CD0A1F568718B426D
:1020940025D001F580618B421ED0A1F589618B4268
:1020A40017D001F580618B4210D0A1F568718B4285
:1020B40009D001F580618B4202D14FF480131EE0F8
:1020C4004FF080631BE04FF4801318E04FF480134B
:1020D40015E04FF4801312E04FF480630FE04FF4E7
:1020E40080630CE04FF4806309E04FF4806306E002
:1020F400102304E0102302E0102300E01023134314
:10210400064A93600023C36480F8353080F8343085
:1021140018467047012070470100800000600240AB
:10212400586402401060024000640240B8600240FB
:102134005860024038B590F83440012C15D004465C
:10214400012084F83400022084F8350025682868CA
:1021540020F0010028602046FFF748F82268136841
:1021640043F001031360002038BD022038BD00BFD6
:1021740038B590F83440012C2ED00446012084F860
:102184003400022084F835002568286820F0010016
:1021940028602046FFF72AF82268136843F01003EA
:1021A40013602268136843F00803136022681368FD
:1021B40043F0040313602268536943F080035361BE
:1021C4002268136843F0020313602268136843F023
:1021D40001031360002038BD022038BD38B5044621
:1021E4000268136823F001031360FEF797FE00F5FD
:1021F4007A750EE0FEF792FEA8420AD3E36C43F030
:102204002003E364002384F83430032084F8350089
:1022140038BD23681B6813F0010FEBD1002084F84C
:102224003400012384F8353038BD00BF2DE9F8436C
:10223400044616468946002952D10368AD4A9342A2
:102244004CD002F58062934246D0A2F56872934264
:1022540040D002F5806293423AD0A2F5896293425B
:1022640033D002F5806293422CD0A2F56872934277
:1022740025D002F5806293421ED0A2F58962934272
:1022840017D002F58062934210D0A2F5687293428F
:1022940009D002F58062934202D14FF4001571E037
:1022A4004FF000656EE04FF400156BE04FF400153D
:1022B40068E04FF4001565E04FF4006562E04FF408
:1022C40000655FE04FF400655CE04FF4006559E0A1
:1022D400202557E0202555E0202553E0202551E016
:1022E4000368844A93424CD002F58062934246D0FC
:1022F400A2F56872934240D002F5806293423AD0CC
:10230400A2F58962934233D002F5806293422CD0C5
:10231400A2F56872934225D002F5806293421ED0E2
:10232400A2F58962934217D002F58062934210D0DD
:10233400A2F56872934209D002F58062934202D1F9
:102344004FF480151EE04FF080651BE04FF48015BC
:1023540018E04FF4801515E04FF4801512E04FF4A7
:1023640080650FE04FF480650CE04FF4806509E070
:102374004FF4806506E0102504E0102502E01025E6
:1023840000E01025FEF7CAFD00EB060801F09CB83A
:10239400594A934254D9583A526856498B424CD0C0
:1023A40001F580618B4246D0A1F568718B4240D023
:1023B40001F580618B423AD0A1F589618B4233D01B
:1023C40001F580618B422CD0A1F568718B4225D038
:1023D40001F580618B421ED0A1F589618B4217D033
:1023E40001F580618B4210D0A1F568718B4209D050
:1023F40001F580618B4202D14FF400211EE04FF0C1
:1024040000711BE04FF4002118E04FF4002115E0A7
:102414004FF4002112E04FF400710FE04FF400710B
:102424000CE04FF4007109E04FF4007106E008215C
:1024340004E0082102E0082100E008210A400BE141
:102444002E4A93425CD902F55272126829498B4292
:102454004CD001F580618B4246D0A1F568718B4266
:1024640040D001F580618B423AD0A1F589618B425D
:1024740033D001F580618B422CD0A1F568718B4279
:1024840025D001F580618B421ED0A1F589618B4274
:1024940017D001F580618B4210D0A1F568718B4291
:1024A40009D001F580618B4202D14FF400211EE076
:1024B4004FF000711BE04FF4002118E04FF40021AD
:1024C40015E04FF4002112E04FF400710FE04FF4D7
:1024D40000710CE04FF4007109E04FF4007106E064
:1024E400082104E0082102E0082100E008210A4054
:1024F400B2E000BF1060024058640240B86002407D
:10250400AA4A934254D9583A5168103293424CD053
:1025140002F58062934246D0A2F56872934240D09D
:1025240002F5806293423AD0A2F58962934233D095
:1025340002F5806293422CD0A2F56872934225D0B2
:1025440002F5806293421ED0A2F58962934217D0AD
:1025540002F58062934210D0A2F56872934209D0CA
:1025640002F58062934202D14FF400221EE04FF044
:1025740000721BE04FF4002218E04FF4002215E033
:102584004FF4002212E04FF400720FE04FF4007297
:102594000CE04FF4007209E04FF4007206E00822E8
:1025A40004E0082202E0082200E008220A4053E086
:1025B4007F4A1168103293424CD002F580629342F4
:1025C40046D0A2F56872934240D002F580629342ED
:1025D4003AD0A2F58962934233D002F580629342E5
:1025E4002CD0A2F56872934225D002F58062934202
:1025F4001ED0A2F58962934217D002F580629342FD
:1026040010D0A2F56872934209D002F58062934219
:1026140002D14FF400221EE04FF000721BE04FF491
:10262400002218E04FF4002215E04FF4002212E0DB
:102634004FF400720FE04FF400720CE04FF400729C
:1026440009E04FF4007206E0082204E0082202E0E8
:10265400082200E008220A4056498B4250D95839D2
:1026640049685548834248D000F58060834242D08F
:10267400A0F5687083423CD000F58060834236D078
:10268400A0F58960834230D000F5806083422AD06F
:10269400A0F56870834224D000F5806083421ED088
:1026A400A0F58960834217D000F58060834210D082
:1026B400A0F56870834209D000F58060834202D19E
:1026C4004FF480301AE04FF4800017E04FF480306C
:1026D40014E04FF4803011E04FF480300EE04020DD
:1026E4000CE040200AE0402008E0402006E03348A7
:1026F40004E0324802E0314800E03048014005E19E
:102704002F498B425ED901F5527109682A488342E8
:1027140048D000F58060834242D0A0F568708342BF
:102724003CD000F58060834236D0A0F589608342B6
:1027340030D000F5806083422AD0A0F568708342CF
:1027440024D000F5806083421ED0A0F589608342C6
:1027540017D000F58060834210D0A0F568708342E2
:1027640009D000F58060834202D14FF480301AE032
:102774004FF4800017E04FF4803014E04FF48030C1
:1027840011E04FF480300EE040200CE040200AE0DD
:10279400402008E0402006E0084804E0074802E042
:1027A400064800E005480140B0E000BF5860024020
:1027B4000060024058640240106002400100800042
:1027C400B8600240AB498B4250D95839486810313F
:1027D4008B4248D001F580618B4242D0A1F56871EB
:1027E4008B423CD001F580618B4236D0A1F58961E2
:1027F4008B4230D001F580618B422AD0A1F56871FB
:102804008B4224D001F580618B421ED0A1F58961F1
:102814008B4217D001F580618B4210D0A1F568710D
:102824008B4209D001F580618B4202D14FF4803193
:102834001AE04FF4800117E04FF4803114E04FF4B4
:10284400803111E04FF480310EE040210CE0402152
:102854000AE0402108E0402106E0874904E0864977
:1028640002E0854900E0844901404FE0834908685B
:1028740010318B4248D001F580618B4242D0A1F5E2
:1028840068718B423CD001F580618B4236D0A1F552
:1028940089618B4230D001F580618B422AD0A1F549
:1028A40068718B4224D001F580618B421ED0A1F562
:1028B40089618B4217D001F580618B4210D0A1F55C
:1028C40068718B4209D001F580618B4202D14FF4CB
:1028D40080311AE04FF4800117E04FF4803114E0A6
:1028E4004FF4803111E04FF480310EE040210CE0D0
:1028F40040210AE0402108E0402106E05E4904E06E
:102904005D4902E05C4900E05B4901405C48834268
:1029140055D958384768A0F57C7083424CD000F5EF
:102924008060834246D0A0F56870834240D000F5B1
:10293400806083423AD0A0F58960834233D000F5A9
:10294400806083422CD0A0F56870834225D000F5C6
:10295400806083421ED0A0F58960834217D000F5C1
:102964008060834210D0A0F56870834209D000F5DE
:102974008060834202D14FF480201EE04FF08070CB
:102984001BE04FF4802018E04FF4802015E04FF452
:10299400802012E04FF480700FE04FF480700CE060
:1029A4004FF4807009E04FF4807006E0354804E08D
:1029B400344802E0334800E03248384016E13248F7
:1029C400834263D900F552700768A0F57C70834296
:1029D4004CD000F58060834246D0A0F568708342F5
:1029E40040D000F5806083423AD0A0F589608342EC
:1029F40033D000F5806083422CD0A0F56870834208
:102A040025D000F5806083421ED0A0F58960834202
:102A140017D000F58060834210D0A0F5687083421F
:102A240009D000F58060834202D14FF480201EE07B
:102A34004FF080701BE04FF4802018E04FF48020AA
:102A440015E04FF4802012E04FF480700FE04FF453
:102A540080700CE04FF4807009E04FF4807006E061
:102A6400084804E0074802E0064800E0054838400A
:102A7400BCE000BF586002400100800000600240DA
:102A84005864024004008000B8600240B4488342A5
:102A940056D95838D0F804E0103083424CD000F5B1
:102AA4008060834246D0A0F56870834240D000F530
:102AB400806083423AD0A0F58960834233D000F528
:102AC400806083422CD0A0F56870834225D000F545
:102AD400806083421ED0A0F58960834217D000F540
:102AE4008060834210D0A0F56870834209D000F55D
:102AF4008060834202D14FF480201EE04FF080704A
:102B04001BE04FF4802018E04FF4802015E04FF4D0
:102B1400802012E04FF480700FE04FF480700CE0DE
:102B24004FF4807009E04FF4807006E08D4804E0B3
:102B34008C4802E08B4800E08A480EEA000055E029
:102B44008948D0F800E0103083424CD000F5806012
:102B5400834246D0A0F56870834240D000F580607F
:102B640083423AD0A0F58960834233D000F5806077
:102B740083422CD0A0F56870834225D000F5806094
:102B840083421ED0A0F58960834217D000F580608F
:102B9400834210D0A0F56870834209D000F58060AC
:102BA400834202D14FF480201EE04FF080701BE07E
:102BB4004FF4802018E04FF4802015E04FF480207B
:102BC40012E04FF480700FE04FF480700CE04FF48B
:102BD400807009E04FF4807006E0624804E06148C8
:102BE40002E0604800E05F480EEA00001AB911B93B
:102BF400002800F056845D4A934256D9583AD26868
:102C04005B498B424CD001F580618B4246D0A1F5E3
:102C140068718B4240D001F580618B423AD0A1F5B6
:102C240089618B4233D001F580618B422CD0A1F5B0
:102C340068718B4225D001F580618B421ED0A1F5CD
:102C440089618B4217D001F580618B4210D0A1F5C8
:102C540068718B4209D001F580618B4202D14FF437
:102C640000231EE04FF000731BE04FF4002318E034
:102C74004FF4002315E04FF4002312E04FF40073E7
:102C84000FE04FF400730CE04FF4007309E04FF4CD
:102C9400007306E0082304E0082302E0082300E0B0
:102CA40008231343334AD36018E1334A934265D966
:102CB40002F5527292682E498B424CD001F5806124
:102CC4008B4246D0A1F568718B4240D001F58061FA
:102CD4008B423AD0A1F589618B4233D001F58061F2
:102CE4008B422CD0A1F568718B4225D001F580610F
:102CF4008B421ED0A1F589618B4217D001F580610A
:102D04008B4210D0A1F568718B4209D001F5806126
:102D14008B4202D14FF400231EE04FF000731BE0FE
:102D24004FF4002318E04FF4002315E04FF4002380
:102D340012E04FF400730FE04FF400730CE04FF413
:102D4400007309E04FF4007306E0082304E008234D
:102D540002E0082300E008231343064A9360BDE021
:102D64005860024004008000006002405864024041
:102D74001060024000640240B8600240AE4A9342D0
:102D840056D9583AD268AD498B424CD001F580618E
:102D94008B4246D0A1F568718B4240D001F5806129
:102DA4008B423AD0A1F589618B4233D001F5806121
:102DB4008B422CD0A1F568718B4225D001F580613E
:102DC4008B421ED0A1F589618B4217D001F5806139
:102DD4008B4210D0A1F568718B4209D001F5806156
:102DE4008B4202D14FF400231EE04FF000731BE02E
:102DF4004FF4002318E04FF4002315E04FF40023B0
:102E040012E04FF400730FE04FF400730CE04FF442
:102E1400007309E04FF4007306E0082304E008237C
:102E240002E0082300E008231343854AD36055E0F9
:102E3400834A926881498B424CD001F580618B4270
:102E440046D0A1F568718B4240D001F580618B4278
:102E54003AD0A1F589618B4233D001F580618B4270
:102E64002CD0A1F568718B4225D001F580618B428D
:102E74001ED0A1F589618B4217D001F580618B4288
:102E840010D0A1F568718B4209D001F580618B42A5
:102E940002D14FF400231EE04FF000731BE04FF407
:102EA400002318E04FF4002315E04FF4002312E050
:102EB4004FF400730FE04FF400730CE04FF4007311
:102EC40009E04FF4007306E0082304E0082302E05D
:102ED400082300E008231343594A93602368594A9E
:102EE400934252D9583AD26854498B4248D001F59A
:102EF40080618B4242D0A1F568718B423CD001F5D0
:102F040080618B4236D0A1F589618B4230D001F5C6
:102F140080618B422AD0A1F568718B4224D001F5DF
:102F240080618B421ED0A1F589618B4217D001F5D7
:102F340080618B4210D0A1F568718B4209D001F5F4
:102F440080618B4202D14FF480331AE04FF4800346
:102F540017E04FF4803314E04FF4803311E04FF462
:102F640080330EE040230CE040230AE0402308E0D5
:102F7400402306E0344B04E0334B02E0324B00E0E4
:102F8400314B1343314AD3600CE1314A934261D946
:102F940002F55272926829498B4248D001F580614A
:102FA4008B4242D0A1F568718B423CD001F580611F
:102FB4008B4236D0A1F589618B4230D001F5806116
:102FC4008B422AD0A1F568718B4224D001F580612F
:102FD4008B421ED0A1F589618B4217D001F5806127
:102FE4008B4210D0A1F568718B4209D001F5806144
:102FF4008B4202D14FF480331AE04FF4800317E080
:103004004FF4803314E04FF4803311E04FF48033F5
:103014000EE040230CE040230AE0402308E0402374
:1030240006E0094B04E0084B02E0074B00E0064BC6
:103034001343064A9360B5E05860024010600240B2
:1030440000600240586402400100800000640240B5
:10305400B8600240AE4A934252D9583AD268AD4958
:103064008B4248D001F580618B4242D0A1F5687152
:103074008B423CD001F580618B4236D0A1F5896149
:103084008B4230D001F580618B422AD0A1F5687162
:103094008B4224D001F580618B421ED0A1F5896159
:1030A4008B4217D001F580618B4210D0A1F5687175
:1030B4008B4209D001F580618B4202D14FF48033F9
:1030C4001AE04FF4800317E04FF4803314E04FF418
:1030D400803311E04FF480330EE040230CE04023B2
:1030E4000AE0402308E0402306E08B4B04E08A4BCF
:1030F40002E0894B00E0884B1343884AD36051E0D7
:10310400864A926883498B4248D001F580618B429C
:1031140042D0A1F568718B423CD001F580618B42AD
:1031240036D0A1F589618B4230D001F580618B42A4
:103134002AD0A1F568718B4224D001F580618B42BD
:103144001ED0A1F589618B4217D001F580618B42B5
:1031540010D0A1F568718B4209D001F580618B42D2
:1031640002D14FF480331AE04FF4800317E04FF498
:10317400803314E04FF4803311E04FF480330EE0D9
:1031840040230CE040230AE0402308E0402306E00B
:10319400614B04E0604B02E05F4B00E05E4B134385
:1031A4005E4A936023685E4A934256D9583AD2687D
:1031B40058498B424CD001F580618B4246D0A1F531
:1031C40068718B4240D001F580618B423AD0A1F501
:1031D40089618B4233D001F580618B422CD0A1F5FB
:1031E40068718B4225D001F580618B421ED0A1F518
:1031F40089618B4217D001F580618B4210D0A1F513
:1032040068718B4209D001F580618B4202D14FF481
:1032140080231EE04FF080731BE04FF4802318E0FE
:103224004FF4802315E04FF4802312E04FF48073B1
:103234000FE04FF480730CE04FF4807309E04FF417
:10324400807306E0374B04E0364B02E0354B00E078
:10325400344B1343344AD3601AE1344A934267D956
:1032640002F5527292682B498B424CD001F5806171
:103274008B4246D0A1F568718B4240D001F5806144
:103284008B423AD0A1F589618B4233D001F580613C
:103294008B422CD0A1F568718B4225D001F5806159
:1032A4008B421ED0A1F589618B4217D001F5806154
:1032B4008B4210D0A1F568718B4209D001F5806171
:1032C4008B4202D14FF480231EE04FF080731BE049
:1032D4004FF4802318E04FF4802315E04FF480234B
:1032E40012E04FF480730FE04FF480730CE04FF45E
:1032F400807309E04FF4807306E00A4B04E0094B45
:1033040002E0084B00E0074B1343074A9360BFE019
:1033140058600240106002400100800000600240DA
:10332400586402400400800000640240B860024017
:10333400A74A934256D9583AD268A6498B424CD0F0
:1033440001F580618B4246D0A1F568718B4240D073
:1033540001F580618B423AD0A1F589618B4233D06B
:1033640001F580618B422CD0A1F568718B4225D088
:1033740001F580618B421ED0A1F589618B4217D083
:1033840001F580618B4210D0A1F568718B4209D0A0
:1033940001F580618B4202D14FF480231EE04FF08F
:1033A40080731BE04FF4802318E04FF4802315E072
:1033B4004FF4802312E04FF480730FE04FF48073D6
:1033C4000CE04FF4807309E04FF4807306E0824B05
:1033D40004E0814B02E0804B00E07F4B13437F4AC3
:1033E400D36055E07D4A92687A498B424CD001F50E
:1033F40080618B4246D0A1F568718B4240D001F5C3
:1034040080618B423AD0A1F589618B4233D001F5BA
:1034140080618B422CD0A1F568718B4225D001F5D7
:1034240080618B421ED0A1F589618B4217D001F5D2
:1034340080618B4210D0A1F568718B4209D001F5EF
:1034440080618B4202D14FF480231EE04FF08073E1
:103454001BE04FF4802318E04FF4802315E04FF471
:10346400802312E04FF480730FE04FF480730CE07C
:103474004FF4807309E04FF4807306E0564B04E088
:10348400554B02E0544B00E0534B1343534A9360B3
:10349400042384F83530002384F834300120BDE857
:1034A400F883B6F1FF3F0FD0FDF738FD40450BD34D
:1034B400E36C43F02003E364002384F834300320F6
:1034C40084F83500BDE8F8832368454A934206D959
:1034D400583A52682A420CBF012200221AE0414A9B
:1034E400934207D902F5527212682A420CBF012294
:1034F40000220FE0364A934206D9583A52682A42CB
:103504000CBF0122002205E0344A12682A420CBF93
:1035140001220022002A7EF43BAF314A934265D94E
:10352400583AD2682B498B424CD001F580618B42CA
:1035340046D0A1F568718B4240D001F580618B4281
:103544003AD0A1F589618B4233D001F580618B4279
:103554002CD0A1F568718B4225D001F580618B4296
:103564001ED0A1F589618B4217D001F580618B4291
:1035740010D0A1F568718B4209D001F580618B42AE
:1035840002D14FF480131EE04FF080631BE04FF430
:10359400801318E04FF4801315E04FF4801312E009
:1035A4004FF480630FE04FF480630CE04FF48063CA
:1035B40009E04FF4806306E0102304E0102302E0E6
:1035C400102300E010231343074AD36019E100BF1E
:1035D4005860024010600240040080000060024015
:1035E40058640240B860024000640240B84A934202
:1035F40057D902F552729268B6498B424CD001F504
:1036040080618B4246D0A1F568718B4240D001F5B0
:1036140080618B423AD0A1F589618B4233D001F5A8
:1036240080618B422CD0A1F568718B4225D001F5C5
:1036340080618B421ED0A1F589618B4217D001F5C0
:1036440080618B4210D0A1F568718B4209D001F5DD
:1036540080618B4202D14FF480131EE04FF08063EF
:103664001BE04FF4801318E04FF4801315E04FF47F
:10367400801312E04FF480630FE04FF480630CE09A
:103684004FF4806309E04FF4806306E0102304E004
:10369400102302E0102300E0102313438E4A9360AA
:1036A400AFE08E4A934256D9583AD26889498B4240
:1036B4004CD001F580618B4246D0A1F568718B42F4
:1036C40040D001F580618B423AD0A1F589618B42EB
:1036D40033D001F580618B422CD0A1F568718B4207
:1036E40025D001F580618B421ED0A1F589618B4202
:1036F40017D001F580618B4210D0A1F568718B421F
:1037040009D001F580618B4202D14FF480131EE091
:103714004FF080631BE04FF4801318E04FF48013E4
:1037240015E04FF4801312E04FF480630FE04FF480
:1037340080630CE04FF4806309E04FF4806306E09B
:10374400102304E0102302E0102300E010231343AD
:10375400634AD36055E0624A92685E498B424CD01A
:1037640001F580618B4246D0A1F568718B4240D04F
:1037740001F580618B423AD0A1F589618B4233D047
:1037840001F580618B422CD0A1F568718B4225D064
:1037940001F580618B421ED0A1F589618B4217D05F
:1037A40001F580618B4210D0A1F568718B4209D07C
:1037B40001F580618B4202D14FF480131EE04FF07B
:1037C40080631BE04FF4801318E04FF4801315E07E
:1037D4004FF4801312E04FF480630FE04FF48063E2
:1037E4000CE04FF4806309E04FF4806306E010239B
:1037F40004E0102302E0102300E010231343384AAE
:103804009360312384F83530B9F1000F40F003831D
:1038140023681A6812F4802F00F08381314A93429E
:1038240062D9583AD2682B498B424CD001F5806159
:103834008B4246D0A1F568718B4240D001F580617E
:103844008B423AD0A1F589618B4233D001F5806176
:103854008B422CD0A1F568718B4225D001F5806193
:103864008B421ED0A1F589618B4217D001F580618E
:103874008B4210D0A1F568718B4209D001F58061AB
:103884008B4202D14FF400131EE04FF000631BE0A3
:103894004FF4001318E04FF4001315E04FF4001335
:1038A40012E04FF400630FE04FF400630CE04FF4B8
:1038B400006309E04FF4006306E0202304E02023C2
:1038C40002E0202300E020231343034AD36016E1DF
:1038D400B860024010600240006402405860024038
:1038E4000060024058640240BB4A934257D902F533
:1038F40052729268B9498B424CD001F580618B4277
:1039040046D0A1F568718B4240D001F580618B42AD
:103914003AD0A1F589618B4233D001F580618B42A5
:103924002CD0A1F568718B4225D001F580618B42C2
:103934001ED0A1F589618B4217D001F580618B42BD
:1039440010D0A1F568718B4209D001F580618B42DA
:1039540002D14FF400131EE04FF000631BE04FF45C
:10396400001318E04FF4001315E04FF4001312E0B5
:103974004FF400630FE04FF400630CE04FF4006376
:1039840009E04FF4006306E0202304E0202302E072
:10399400202300E020231343914A9360AFE0914A2F
:1039A400934256D9583AD2688C498B424CD001F58F
:1039B40080618B4246D0A1F568718B4240D001F5FD
:1039C40080618B423AD0A1F589618B4233D001F5F5
:1039D40080618B422CD0A1F568718B4225D001F512
:1039E40080618B421ED0A1F589618B4217D001F50D
:1039F40080618B4210D0A1F568718B4209D001F52A
:103A040080618B4202D14FF400131EE04FF000633B
:103A14001BE04FF4001318E04FF4001315E04FF4CB
:103A2400001312E04FF400630FE04FF400630CE066
:103A34004FF4006309E04FF4006306E0202304E040
:103A4400202302E0202300E020231343664AD360AE
:103A540055E0654A926861498B424CD001F580611A
:103A64008B4246D0A1F568718B4240D001F580614C
:103A74008B423AD0A1F589618B4233D001F5806144
:103A84008B422CD0A1F568718B4225D001F5806161
:103A94008B421ED0A1F589618B4217D001F580615C
:103AA4008B4210D0A1F568718B4209D001F5806179
:103AB4008B4202D14FF400131EE04FF000631BE071
:103AC4004FF4001318E04FF4001315E04FF4001303
:103AD40012E04FF400630FE04FF400630CE04FF486
:103AE400006309E04FF4006306E0202304E0202390
:103AF40002E0202300E0202313433B4A9360236821
:103B04001A6812F4002F03D1112384F835307DE1B3
:103B14001B6813F4002F00F07981212384F83530D9
:103B240074E1324A934263D9583AD2682B498B42A2
:103B34004CD001F580618B4246D0A1F568718B426F
:103B440040D001F580618B423AD0A1F589618B4266
:103B540033D001F580618B422CD0A1F568718B4282
:103B640025D001F580618B421ED0A1F589618B427D
:103B740017D001F580618B4210D0A1F568718B429A
:103B840009D001F580618B4202D14FF400131EE08D
:103B94004FF000631BE04FF4001318E04FF40013E0
:103BA40015E04FF4001312E04FF400630FE04FF4FC
:103BB40000630CE04FF4006309E04FF4006306E097
:103BC400202304E0202302E0202300E020231343E9
:103BD400034AD36017E100BFB8600240106002409E
:103BE4000064024058600240006002405864024091
:103BF400B94A934257D902F552729268B7498B4237
:103C04004CD001F580618B4246D0A1F568718B429E
:103C140040D001F580618B423AD0A1F589618B4295
:103C240033D001F580618B422CD0A1F568718B42B1
:103C340025D001F580618B421ED0A1F589618B42AC
:103C440017D001F580618B4210D0A1F568718B42C9
:103C540009D001F580618B4202D14FF400131EE0BC
:103C64004FF000631BE04FF4001318E04FF400130F
:103C740015E04FF4001312E04FF400630FE04FF42B
:103C840000630CE04FF4006309E04FF4006306E0C6
:103C9400202304E0202302E0202300E02023134318
:103CA4008F4A9360AFE08F4A934256D9583AD2680C
:103CB4008A498B424CD001F580618B4246D0A1F5F4
:103CC40068718B4240D001F580618B423AD0A1F5F6
:103CD40089618B4233D001F580618B422CD0A1F5F0
:103CE40068718B4225D001F580618B421ED0A1F50D
:103CF40089618B4217D001F580618B4210D0A1F508
:103D040068718B4209D001F580618B4202D14FF476
:103D140000131EE04FF000631BE04FF4001318E0A3
:103D24004FF4001315E04FF4001312E04FF4006356
:103D34000FE04FF400630CE04FF4006309E04FF42C
:103D4400006306E0202304E0202302E0202300E0B7
:103D540020231343644AD36055E0634A92685F4961
:103D64008B424CD001F580618B4246D0A1F568713D
:103D74008B4240D001F580618B423AD0A1F5896134
:103D84008B4233D001F580618B422CD0A1F5687150
:103D94008B4225D001F580618B421ED0A1F589614B
:103DA4008B4217D001F580618B4210D0A1F5687168
:103DB4008B4209D001F580618B4202D14FF400138C
:103DC4001EE04FF000631BE04FF4001318E04FF4C3
:103DD400001315E04FF4001312E04FF400630FE0FA
:103DE4004FF400630CE04FF4006309E04FF4006308
:103DF40006E0202304E0202302E0202300E0202327
:103E04001343394A9360112384F83530002084F831
:103E14003400BDE8F88323681A6812F4802F00F098
:103E24008881324A934263D9583AD2682B498B42EB
:103E34004CD001F580618B4246D0A1F568718B426C
:103E440040D001F580618B423AD0A1F589618B4263
:103E540033D001F580618B422CD0A1F568718B427F
:103E640025D001F580618B421ED0A1F589618B427A
:103E740017D001F580618B4210D0A1F568718B4297
:103E840009D001F580618B4202D14FF480131EE00A
:103E94004FF080631BE04FF4801318E04FF480135D
:103EA40015E04FF4801312E04FF480630FE04FF4F9
:103EB40080630CE04FF4806309E04FF4806306E014
:103EC400102304E0102302E0102300E01023134326
:103ED400034AD36017E100BFB8600240106002409B
:103EE400006402405860024000600240586402408E
:103EF400BD4A934257D902F552729268BB498B422C
:103F04004CD001F580618B4246D0A1F568718B429B
:103F140040D001F580618B423AD0A1F589618B4292
:103F240033D001F580618B422CD0A1F568718B42AE
:103F340025D001F580618B421ED0A1F589618B42A9
:103F440017D001F580618B4210D0A1F568718B42C6
:103F540009D001F580618B4202D14FF480131EE039
:103F64004FF080631BE04FF4801318E04FF480138C
:103F740015E04FF4801312E04FF480630FE04FF428
:103F840080630CE04FF4806309E04FF4806306E043
:103F9400102304E0102302E0102300E01023134355
:103FA400934A9360AFE0934A934256D9583AD26801
:103FB4008E498B424CD001F580618B4246D0A1F5ED
:103FC40068718B4240D001F580618B423AD0A1F5F3
:103FD40089618B4233D001F580618B422CD0A1F5ED
:103FE40068718B4225D001F580618B421ED0A1F50A
:103FF40089618B4217D001F580618B4210D0A1F505
:1040040068718B4209D001F580618B4202D14FF473
:1040140080131EE04FF080631BE04FF4801318E020
:104024004FF4801315E04FF4801312E04FF48063D3
:104034000FE04FF480630CE04FF4806309E04FF429
:10404400806306E0102304E0102302E0102300E064
:1040540010231343684AD36055E0674A9268634962
:104064008B424CD001F580618B4246D0A1F568713A
:104074008B4240D001F580618B423AD0A1F5896131
:104084008B4233D001F580618B422CD0A1F568714D
:104094008B4225D001F580618B421ED0A1F5896148
:1040A4008B4217D001F580618B4210D0A1F5687165
:1040B4008B4209D001F580618B4202D14FF4801309
:1040C4001EE04FF080631BE04FF4801318E04FF4C0
:1040D400801315E04FF4801312E04FF480630FE077
:1040E4004FF480630CE04FF4806309E04FF4806385
:1040F40006E0102304E0102302E0102300E0102364
:1041040013433D4A936023681A6812F4002F05D1C3
:10411400312384F835300020BDE8F8831B6813F49C
:10412400002F00F07E81412384F835300020BDE863
:10413400F883324A934263D9583AD2682B498B4266
:104144004CD001F580618B4246D0A1F568718B4259
:1041540040D001F580618B423AD0A1F589618B4250
:1041640033D001F580618B422CD0A1F568718B426C
:1041740025D001F580618B421ED0A1F589618B4267
:1041840017D001F580618B4210D0A1F568718B4284
:1041940009D001F580618B4202D14FF480131EE0F7
:1041A4004FF080631BE04FF4801318E04FF480134A
:1041B40015E04FF4801312E04FF480630FE04FF4E6
:1041C40080630CE04FF4806309E04FF4806306E001
:1041D400102304E0102302E0102300E01023134313
:1041E400034AD36017E100BFB86002401060024088
:1041F400006402405860024000600240586402407B
:10420400894A934257D902F55272926887498B4280
:104214004CD001F580618B4246D0A1F568718B4288
:1042240040D001F580618B423AD0A1F589618B427F
:1042340033D001F580618B422CD0A1F568718B429B
:1042440025D001F580618B421ED0A1F589618B4296
:1042540017D001F580618B4210D0A1F568718B42B3
:1042640009D001F580618B4202D14FF480131EE026
:104274004FF080631BE04FF4801318E04FF4801379
:1042840015E04FF4801312E04FF480630FE04FF415
:1042940080630CE04FF4806309E04FF4806306E030
:1042A400102304E0102302E0102300E01023134342
:1042B4005F4A9360AFE05F4A934256D9583AD26856
:1042C4005A498B424CD001F580618B4246D0A1F50E
:1042D40068718B4240D001F580618B423AD0A1F5E0
:1042E40089618B4233D001F580618B422CD0A1F5DA
:1042F40068718B4225D001F580618B421ED0A1F5F7
:1043040089618B4217D001F580618B4210D0A1F5F1
:1043140068718B4209D001F580618B4202D14FF460
:1043240080131EE04FF080631BE04FF4801318E00D
:104334004FF4801315E04FF4801312E04FF48063C0
:104344000FE04FF480630CE04FF4806309E04FF416
:10435400806306E0102304E0102302E0102300E051
:1043640010231343344AD36055E0334A92682F49EB
:104374008B424CD001F580618B4246D0A1F5687127
:104384008B4240D001F580618B423AD0A1F589611E
:104394008B4233D001F580618B422CD0A1F568713A
:1043A4008B4225D001F580618B421ED0A1F5896135
:1043B4008B4217D001F580618B4210D0A1F5687152
:1043C4008B4209D001F580618B4202D14FF48013F6
:1043D4001EE04FF080631BE04FF4801318E04FF4AD
:1043E400801315E04FF4801312E04FF480630FE064
:1043F4004FF480630CE04FF4806309E04FF4806372
:1044040006E0102304E0102302E0102300E0102350
:104414001343094A9360312384F835300020BDE802
:10442400F8830020BDE8F883B860024010600240C1
:1044340000640240586002400060024010B5044627
:104444000368B24A934257D9583A5268B0498B42EA
:104454004CD001F580618B4246D0A1F568718B4246
:1044640040D001F580618B423AD0A1F589618B423D
:1044740033D001F580618B422CD0A1F568718B4259
:1044840025D001F580618B421ED0A1F589618B4254
:1044940017D001F580618B4210D0A1F568718B4271
:1044A40009D001F580618B4202D14FF400211EE056
:1044B4004FF000711BE04FF4002118E04FF400218D
:1044C40015E04FF4002112E04FF400710FE04FF4B7
:1044D40000710CE04FF4007109E04FF4007106E044
:1044E400082104E0082102E0082100E008210A4232
:1044F40014BF0122002218E1864A934258D902F5DA
:104504005272126882498B424CD001F580618B4211
:1045140046D0A1F568718B4240D001F580618B4291
:104524003AD0A1F589618B4233D001F580618B4289
:104534002CD0A1F568718B4225D001F580618B42A6
:104544001ED0A1F589618B4217D001F580618B42A1
:1045540010D0A1F568718B4209D001F580618B42BE
:1045640002D14FF400211EE04FF000711BE04FF424
:10457400002118E04FF4002115E04FF4002112E06F
:104584004FF400710FE04FF400710CE04FF4007130
:1045940009E04FF4007106E0082104E0082102E07C
:1045A400082100E008210A4214BF01220022BCE0D5
:1045B400594A934257D9583A526855498B424CD07C
:1045C40001F580618B4246D0A1F568718B4240D0E1
:1045D40001F580618B423AD0A1F589618B4233D0D9
:1045E40001F580618B422CD0A1F568718B4225D0F6
:1045F40001F580618B421ED0A1F589618B4217D0F1
:1046040001F580618B4210D0A1F568718B4209D00D
:1046140001F580618B4202D14FF400211EE04FF07E
:1046240000711BE04FF4002118E04FF4002115E065
:104634004FF4002112E04FF400710FE04FF40071C9
:104644000CE04FF4007109E04FF4007106E008211A
:1046540004E0082102E0082100E008210A4214BF16
:104664000122002261E02D4A126829498B4257D069
:1046740001F580618B4246D0A1F568718B4240D030
:1046840001F580618B423AD0A1F589618B4233D028
:1046940001F580618B422CD0A1F568718B4225D045
:1046A40001F580618B421ED0A1F589618B4217D040
:1046B40001F580618B4210D0A1F568718B4209D05D
:1046C40001F580618B4202D14FF4002129E04FF0C3
:1046D400007126E04FF4002123E04FF4002120E094
:1046E4004FF400211DE04FF400711AE04FF4007103
:1046F40017E04FF4007114E04FF4007111E0082149
:104704000FE008210DE008210BE000BF58640240CF
:1047140010600240B86002405860024000600240ED
:1047240008210A4214BF01220022002A00F08A81D3
:104734001A6812F0040F00F085811A6822F004024E
:104744001A602368B04A934256D9583AD268AF499E
:104754008B424CD001F580618B4246D0A1F5687143
:104764008B4240D001F580618B423AD0A1F589613A
:104774008B4233D001F580618B422CD0A1F5687156
:104784008B4225D001F580618B421ED0A1F5896151
:104794008B4217D001F580618B4210D0A1F568716E
:1047A4008B4209D001F580618B4202D14FF4002382
:1047B4001EE04FF000731BE04FF4002318E04FF4A9
:1047C400002315E04FF4002312E04FF400730FE0D0
:1047D4004FF400730CE04FF4007309E04FF40073DE
:1047E40006E0082304E0082302E0082300E008238D
:1047F4001343874AD36017E1864A934257D902F597
:104804005272926881498B424CD001F580618B428F
:1048140046D0A1F568718B4240D001F580618B428E
:104824003AD0A1F589618B4233D001F580618B4286
:104834002CD0A1F568718B4225D001F580618B42A3
:104844001ED0A1F589618B4217D001F580618B429E
:1048540010D0A1F568718B4209D001F580618B42BB
:1048640002D14FF400231EE04FF000731BE04FF41D
:10487400002318E04FF4002315E04FF4002312E066
:104884004FF400730FE04FF400730CE04FF4007327
:1048940009E04FF4007306E0082304E0082302E073
:1048A400082300E008231343594A9360BCE05A4AA2
:1048B400934256D9583AD26854498B424CD001F5A8
:1048C40080618B4246D0A1F568718B4240D001F5DE
:1048D40080618B423AD0A1F589618B4233D001F5D6
:1048E40080618B422CD0A1F568718B4225D001F5F3
:1048F40080618B421ED0A1F589618B4217D001F5EE
:1049040080618B4210D0A1F568718B4209D001F50A
:1049140080618B4202D14FF400231EE04FF00073FC
:104924001BE04FF4002318E04FF4002315E04FF48C
:10493400002312E04FF400730FE04FF400730CE017
:104944004FF4007309E04FF4007306E0082304E019
:10495400082302E0082300E0082313432F4AD3600E
:1049640062E02E4A926829498B4259D001F5806150
:104974008B4246D0A1F568718B4240D001F580612D
:104984008B423AD0A1F589618B4233D001F5806125
:104994008B422CD0A1F568718B4225D001F5806142
:1049A4008B421ED0A1F589618B4217D001F580613D
:1049B4008B4210D0A1F568718B4209D001F580615A
:1049C4008B4202D14FF400232BE04FF0007328E018
:1049D4004FF4002325E04FF4002322E04FF400239A
:1049E4001FE04FF400731CE04FF4007319E04FF420
:1049F400007316E04FF4007313E0082311E008235A
:104A04000FE008230DE000BF58640240106002402C
:104A140000640240B86002405860024000600240F6
:104A240008231343B24A9360E36C43F00103E36445
:104A3400042384F83530002384F83430A36C0BB19C
:104A4400204698472368AB4A934253D9583A526850
:104A5400A9498B4248D001F580618B4242D0A1F52F
:104A640068718B423CD001F580618B4236D0A1F550
:104A740089618B4230D001F580618B422AD0A1F547
:104A840068718B4224D001F580618B421ED0A1F560
:104A940089618B4217D001F580618B4210D0A1F55A
:104AA40068718B4209D001F580618B4202D14FF4C9
:104AB40080311AE04FF4800117E04FF4803114E0A4
:104AC4004FF4803111E04FF480310EE040210CE0CE
:104AD40040210AE0402108E0402106E0874904E043
:104AE400864902E0854900E084490A4214BF012254
:104AF40000220EE1824A934254D902F5527212689E
:104B04007D498B4248D001F580618B4242D0A1F5AA
:104B140068718B423CD001F580618B4236D0A1F59F
:104B240089618B4230D001F580618B422AD0A1F596
:104B340068718B4224D001F580618B421ED0A1F5AF
:104B440089618B4217D001F580618B4210D0A1F5A9
:104B540068718B4209D001F580618B4202D14FF418
:104B640080311AE04FF4800117E04FF4803114E0F3
:104B74004FF4803111E04FF480310EE040210CE01D
:104B840040210AE0402108E0402106E05B4904E0BE
:104B94005A4902E0594900E058490A4214BF012227
:104BA4000022B6E0574A934253D9583A52685249C0
:104BB4008B4248D001F580618B4242D0A1F56871E7
:104BC4008B423CD001F580618B4236D0A1F58961DE
:104BD4008B4230D001F580618B422AD0A1F56871F7
:104BE4008B4224D001F580618B421ED0A1F58961EE
:104BF4008B4217D001F580618B4210D0A1F568710A
:104C04008B4209D001F580618B4202D14FF480318F
:104C14001AE04FF4800117E04FF4803114E04FF4B0
:104C2400803111E04FF480310EE040210CE040214E
:104C34000AE0402108E0402106E0304904E02F4921
:104C440002E02E4900E02D490A4214BF012200224D
:104C54005FE0274A126828498B4255D001F58061EC
:104C64008B4242D0A1F568718B423CD001F5806142
:104C74008B4236D0A1F589618B4230D001F5806139
:104C84008B422AD0A1F568718B4224D001F5806152
:104C94008B421ED0A1F589618B4217D001F580614A
:104CA4008B4210D0A1F568718B4209D001F5806167
:104CB4008B4202D14FF4803127E04FF4800124E08D
:104CC4004FF4803121E04FF480311EE04FF4803105
:104CD4001BE0402119E0402117E0402115E040216C
:104CE40013E0064911E005490FE004490DE000BF57
:104CF40000600240586402401060024001008000DD
:104D0400B860024058600240B1490A4214BF01220F
:104D14000022002A00F07C815A6912F0800F00F012
:104D240077815A6922F080025A612368A94A934222
:104D340052D9583AD268A8498B4248D001F58061CB
:104D44008B4242D0A1F568718B423CD001F5806161
:104D54008B4236D0A1F589618B4230D001F5806158
:104D64008B422AD0A1F568718B4224D001F5806171
:104D74008B421ED0A1F589618B4217D001F5806169
:104D84008B4210D0A1F568718B4209D001F5806186
:104D94008B4202D14FF480331AE04FF4800317E0C2
:104DA4004FF4803314E04FF4803311E04FF4803338
:104DB4000EE040230CE040230AE0402308E04023B7
:104DC40006E0834B04E0824B02E0814B00E0804B21
:104DD4001343824AD3600DE1814A934253D902F5C9
:104DE400527292687C498B4248D001F580618B42B3
:104DF40042D0A1F568718B423CD001F580618B42B1
:104E040036D0A1F589618B4230D001F580618B42A7
:104E14002AD0A1F568718B4224D001F580618B42C0
:104E24001ED0A1F589618B4217D001F580618B42B8
:104E340010D0A1F568718B4209D001F580618B42D5
:104E440002D14FF480331AE04FF4800317E04FF49B
:104E5400803314E04FF4803311E04FF480330EE0DC
:104E640040230CE040230AE0402308E0402306E00E
:104E7400574B04E0564B02E0554B00E0544B1343B0
:104E8400564A9360B6E0574A934252D9583AD26888
:104E940051498B4248D001F580618B4242D0A1F543
:104EA40068718B423CD001F580618B4236D0A1F50C
:104EB40089618B4230D001F580618B422AD0A1F503
:104EC40068718B4224D001F580618B421ED0A1F51C
:104ED40089618B4217D001F580618B4210D0A1F516
:104EE40068718B4209D001F580618B4202D14FF485
:104EF40080331AE04FF4800317E04FF4803314E05A
:104F04004FF4803311E04FF480330EE040230CE083
:104F140040230AE0402308E0402306E02C4B04E051
:104F24002B4B02E02A4B00E0294B13432E4AD3605B
:104F340060E02D4A926828498B4257D001F5806180
:104F44008B4242D0A1F568718B423CD001F580615F
:104F54008B4236D0A1F589618B4230D001F5806156
:104F64008B422AD0A1F568718B4224D001F580616F
:104F74008B421ED0A1F589618B4217D001F5806167
:104F84008B4210D0A1F568718B4209D001F5806184
:104F94008B4202D14FF4803329E04FF4800326E0A2
:104FA4004FF4803323E04FF4803320E04FF4803318
:104FB4001DE040231BE0402319E0402317E0402379
:104FC40015E0034B13E0024B11E0014B0FE000BF6F
:104FD40001008000586402401060024000640240F6
:104FE400B86002405860024000600240B54B134371
:104FF400B54A9360E36C43F00203E364042384F84A
:105004003530002384F83430A36C0BB12046984724
:105014002368AE4A934257D9583A5268AC498B42F6
:105024004CD001F580618B4246D0A1F568718B426A
:1050340040D001F580618B423AD0A1F589618B4261
:1050440033D001F580618B422CD0A1F568718B427D
:1050540025D001F580618B421ED0A1F589618B4278
:1050640017D001F580618B4210D0A1F568718B4295
:1050740009D001F580618B4202D14FF480211EE0FA
:105084004FF080711BE04FF4802118E04FF4802131
:1050940015E04FF4802112E04FF480710FE04FF4DB
:1050A40080710CE04FF4807109E04FF4807106E0E8
:1050B400884904E0874902E0864900E085490A42BC
:1050C40014BF012200221CE1834A934258D902F5FD
:1050D400527212687E498B424CD001F580618B423A
:1050E40046D0A1F568718B4240D001F580618B42B6
:1050F4003AD0A1F589618B4233D001F580618B42AE
:105104002CD0A1F568718B4225D001F580618B42CA
:105114001ED0A1F589618B4217D001F580618B42C5
:1051240010D0A1F568718B4209D001F580618B42E2
:1051340002D14FF480211EE04FF080711BE04FF448
:10514400802118E04FF4802115E04FF4802112E013
:105154004FF480710FE04FF480710CE04FF48071D4
:1051640009E04FF4807106E05A4904E0594902E02D
:10517400584900E057490A4214BF01220022C0E006
:10518400564A934257D9583A526851498B424CD0A7
:1051940001F580618B4246D0A1F568718B4240D005
:1051A40001F580618B423AD0A1F589618B4233D0FD
:1051B40001F580618B422CD0A1F568718B4225D01A
:1051C40001F580618B421ED0A1F589618B4217D015
:1051D40001F580618B4210D0A1F568718B4209D032
:1051E40001F580618B4202D14FF480211EE04FF023
:1051F40080711BE04FF4802118E04FF4802115E00A
:105204004FF4802112E04FF480710FE04FF480716D
:105214000CE04FF4807109E04FF4807106E02D49F1
:1052240004E02C4902E02B4900E02A490A4214BF59
:105234000122002265E0244A126825498B425BD092
:1052440001F580618B4255D0A1F568718B424FD036
:1052540001F580618B4249D0A1F589618B4242D02E
:1052640001F580618B423BD0A1F568718B4225D05A
:1052740001F580618B421ED0A1F589618B4217D064
:1052840001F580618B4210D0A1F568718B4209D081
:1052940001F580618B4202D14FF480212DE04FF063
:1052A40080712AE04FF4802127E04FF4802124E02C
:1052B4004FF4802121E04FF480711EE04FF480719F
:1052C4001BE000BF010080000060024058640240FF
:1052D4001060024004008000B86002405860024040
:1052E4004FF4807109E04FF4807106E0B64904E0A0
:1052F400B54902E0B44900E0B3490A4214BF0122AF
:105304000022002A00F08C811A6812F0020F00F0CB
:1053140087811A6822F002021A602368AB4A93421A
:1053240056D9583AD268AA498B424CD001F58061CB
:105334008B4246D0A1F568718B4240D001F5806163
:105344008B423AD0A1F589618B4233D001F580615B
:105354008B422CD0A1F568718B4225D001F5806178
:105364008B421ED0A1F589618B4217D001F5806173
:105374008B4210D0A1F568718B4209D001F5806190
:105384008B4202D14FF480231EE04FF080731BE068
:105394004FF4802318E04FF4802315E04FF480236A
:1053A40012E04FF480730FE04FF480730CE04FF47D
:1053B400807309E04FF4807306E0834B04E0824B72
:1053C40002E0814B00E0804B1343824AD36019E131
:1053D400814A934257D902F5527292687C498B42B2
:1053E4004CD001F580618B4246D0A1F568718B42A7
:1053F40040D001F580618B423AD0A1F589618B429E
:1054040033D001F580618B422CD0A1F568718B42B9
:1054140025D001F580618B421ED0A1F589618B42B4
:1054240017D001F580618B4210D0A1F568718B42D1
:1054340009D001F580618B4202D14FF480231EE034
:105444004FF080731BE04FF4802318E04FF4802367
:1054540015E04FF4802312E04FF480730FE04FF413
:1054640080730CE04FF4807309E04FF4807306E01E
:10547400554B04E0544B02E0534B00E0524B1343B2
:10548400544A9360BEE0554A934256D9583AD2687A
:105494004F498B424CD001F580618B4246D0A1F537
:1054A40068718B4240D001F580618B423AD0A1F5FE
:1054B40089618B4233D001F580618B422CD0A1F5F8
:1054C40068718B4225D001F580618B421ED0A1F515
:1054D40089618B4217D001F580618B4210D0A1F510
:1054E40068718B4209D001F580618B4202D14FF47F
:1054F40080231EE04FF080731BE04FF4802318E0FC
:105504004FF4802315E04FF4802312E04FF48073AE
:105514000FE04FF480730CE04FF4807309E04FF414
:10552400807306E0284B04E0274B02E0264B00E0A2
:10553400254B13432A4AD36064E0294A92682449DC
:105544008B425BD001F580618B4255D0A1F5687127
:105554008B424FD001F580618B4249D0A1F589611E
:105564008B4242D001F580618B423BD0A1F568713A
:105574008B4225D001F580618B421ED0A1F5896153
:105584008B4217D001F580618B4210D0A1F5687170
:105594008B4209D001F580618B4202D14FF4802304
:1055A4002DE04FF080732AE04FF4802327E04FF47E
:1055B400802324E04FF4802321E04FF480731EE025
:1055C4004FF480731BE000BF040080005864024065
:1055D4001060024000640240B8600240586002401B
:1055E400006002404FF4807309E04FF4807306E0DA
:1055F400B84B04E0B74B02E0B64B00E0B54B1343A5
:10560400B54A9360E36C43F00403E364042384F831
:105614003530002384F83430A36C0BB1204698470E
:105624002368AE4A934257D9583A5268AC498B42E0
:105634004CD001F580618B4246D0A1F568718B4254
:1056440040D001F580618B423AD0A1F589618B424B
:1056540033D001F580618B422CD0A1F568718B4267
:1056640025D001F580618B421ED0A1F589618B4262
:1056740017D001F580618B4210D0A1F568718B427F
:1056840009D001F580618B4202D14FF480111EE0F4
:105694004FF080611BE04FF4801118E04FF480114B
:1056A40015E04FF4801112E04FF480610FE04FF4E5
:1056B40080610CE04FF4806109E04FF4806106E002
:1056C400102104E0102102E0102100E010210A4220
:1056D40014BF012200221AE1824A934258D902F5EA
:1056E400527212687E498B424CD001F580618B4224
:1056F40046D0A1F568718B4240D001F580618B42A0
:105704003AD0A1F589618B4233D001F580618B4297
:105714002CD0A1F568718B4225D001F580618B42B4
:105724001ED0A1F589618B4217D001F580618B42AF
:1057340010D0A1F568718B4209D001F580618B42CC
:1057440002D14FF480111EE04FF080611BE04FF452
:10575400801118E04FF4801115E04FF4801112E02D
:105764004FF480610FE04FF480610CE04FF48061EE
:1057740009E04FF4806106E0102104E0102102E00A
:10578400102100E010210A4214BF01220022BEE0D1
:10579400554A934257D9583A526851498B424CD092
:1057A40001F580618B4246D0A1F568718B4240D0EF
:1057B40001F580618B423AD0A1F589618B4233D0E7
:1057C40001F580618B422CD0A1F568718B4225D004
:1057D40001F580618B421ED0A1F589618B4217D0FF
:1057E40001F580618B4210D0A1F568718B4209D01C
:1057F40001F580618B4202D14FF480111EE04FF01D
:1058040080611BE04FF4801118E04FF4801115E023
:105814004FF4801112E04FF480610FE04FF4806187
:105824000CE04FF4806109E04FF4806106E0102140
:1058340004E0102102E0102100E010210A4214BF0C
:105844000122002263E0244A126825498B4259D080
:1058540001F580618B4253D0A1F568718B424DD024
:1058640001F580618B4247D0A1F589618B4240D01C
:1058740001F580618B4239D0A1F568718B4225D046
:1058840001F580618B421ED0A1F589618B4217D04E
:1058940001F580618B4210D0A1F568718B4209D06B
:1058A40001F580618B4202D14FF480112BE04FF05F
:1058B400806128E04FF4801125E04FF4801122E04C
:1058C4004FF480111FE04FF480611CE04FF48061BD
:1058D40019E000BF040080000060024058640240E8
:1058E40010600240B8600240586002404FF480618A
:1058F40009E04FF4806106E0102104E0102102E089
:10590400102100E010210A4214BF01220022002AC3
:1059140000F00F831A6812F0080F00F00A831A6867
:1059240012F4802F00F08481BB4A934256D9583A2E
:10593400D268BA498B424CD001F580618B4246D083
:10594400A1F568718B4240D001F580618B423AD059
:10595400A1F589618B4233D001F580618B422CD053
:10596400A1F568718B4225D001F580618B421ED070
:10597400A1F589618B4217D001F580618B4210D06B
:10598400A1F568718B4209D001F580618B4202D187
:105994004FF480131EE04FF080631BE04FF480133C
:1059A40018E04FF4801315E04FF4801312E04FF425
:1059B40080630FE04FF480630CE04FF4806309E0F0
:1059C4004FF4806306E0102304E0102302E0102368
:1059D40000E010231343924AD3600AE1914A9342B0
:1059E40057D902F5527292688C498B424CD001F51A
:1059F40080618B4246D0A1F568718B4240D001F59D
:105A040080618B423AD0A1F589618B4233D001F594
:105A140080618B422CD0A1F568718B4225D001F5B1
:105A240080618B421ED0A1F589618B4217D001F5AC
:105A340080618B4210D0A1F568718B4209D001F5C9
:105A440080618B4202D14FF480131EE04FF08063DB
:105A54001BE04FF4801318E04FF4801315E04FF46B
:105A6400801312E04FF480630FE04FF480630CE086
:105A74004FF4806309E04FF4806306E0102304E0F0
:105A8400102302E0102300E010231343644A9360C0
:105A9400AFE0654A934256D9583AD2685F498B427F
:105AA4004CD001F580618B4246D0A1F568718B42E0
:105AB40040D001F580618B423AD0A1F589618B42D7
:105AC40033D001F580618B422CD0A1F568718B42F3
